:100000000C944E190C9478190C9478190C94781956
:100010000C9478190C9478190C9478190C9478191C
:100020000C9478190C9478190C9478190C9478190C
:100030000C9478190C94BFAC0C9478190C94781922
:100040000C9478190C94F7600C94703E0C94781909
:100050000C94ED3B0C9478190C9478190C94781945
:100060000C9478190C9478190C9478190C947819CC
:100070000C9478190C9478190C9478190C947819BC
:100080000C94C0DA0C9478190C947819313D343DF5
:10009000273D2B3D4B3D4B3D383D3C3D423D463D94
:1000A000DF3DE43DE93DF33D213E213EFD3D053E82
:1000B0000D3E173E434F4D4D554E49434154494F18
:1000C0004E0044525952554E004552524F52530021
:1000D000494E464F004543484F00536C6565702EAE
:1000E0002E2E00473238205A20466F7262696464AF
:1000F000656E0A00473238205A20466F7262696482
:1001000064656E00205A3A200020593A200042656A
:100110006420583A20004D65736820706F696E74D2
:100120002063616E6E6F74206265207265736F6C00
:100130007665640A0043522D31302072656164791E
:100140002E00526573756D696E67207072696E74EA
:1001500000436C69636B20746F20726573756D6505
:100160002E2E2E004E6F206D6F76652E00456E642C
:100170002066696C65206C6973740A004265676962
:100180006E2066696C65206C6973740A00544620A1
:100190007072696E74696E67206279746520004EB2
:1001A0006F74205446207072696E74696E670A001D
:1001B00046696C652064656C657465643A004465E5
:1001C0006C6574696F6E206661696C65642C20468D
:1001D000696C653A20006F70656E206661696C65B8
:1001E000642C2046696C653A2000256973002569F6
:1001F0006D20256973002569682025696D202569B2
:100200007300256964202569682025696D202569AA
:10021000730025697920256964202569682025698E
:100220006D20256973005072696E742074696D6564
:100230003A200050726F7465637465642050696E73
:100240000A00457874727564657220257300D500C4
:10025000D000C900C200B4006F6666004445425534
:10026000473A004B494C4C45442E200042656420DF
:10027000646F6E652E0020573A0042656420486521
:100280006174696E672E004361703A454D4552476F
:10029000454E43595F5041525345523A300A00434C
:1002A00061703A434153455F4C494748545F42525D
:1002B000494748544E4553533A300A004361703A17
:1002C000544F47474C455F4C49474854533A300ACE
:1002D000004361703A534F4654574152455F504F67
:1002E0005745523A300A004361703A4C4556454CE6
:1002F000494E475F444154413A310A004361703AE4
:100300005A5F50524F42453A310A004361703A41B8
:1003100055544F4C4556454C3A310A004361703AAA
:100320005052494E545F4A4F423A310A004361707D
:100330003A50524F47524553533A300A0043617086
:100340003A4155544F5245504F52545F54454D50C9
:100350003A310A004361703A454550524F4D3A31A7
:100360000A004649524D574152455F4E414D453A6C
:100370004D61726C696E20437265616C697479209D
:10038000334420534F555243455F434F44455F55D7
:10039000524C3A68747470733A2F2F676974687599
:1003A000622E636F6D2F4D61726C696E4669726D5E
:1003B000776172652F4D61726C696E2050524F5497
:1003C0004F434F4C5F56455253494F4E3A312E30B2
:1003D000204D414348494E455F545950453A435298
:1003E0002D31302045585452554445525F434F55A6
:1003F0004E543A3120555549443A6365646532613B
:1004000032662D343161322D343734382D39623132
:10041000322D6335356336326633363766660A0009
:100420002F2F20007A5F6D696E3A2000795F6D6929
:100430006E3A2000785F6D696E3A20005265706FE9
:100440007274696E6720656E6473746F7020737464
:10045000617475730A004D31343520533C696E6404
:1004600065783E206F7574206F662072616E6765D7
:100470002028302D31290A0053657474696E672075
:1004800054726176656C20416363656C657261745A
:10049000696F6E3A200053657474696E6720526507
:1004A000747261637420416363656C657261746921
:1004B0006F6E3A200053657474696E6720507269DC
:1004C0006E7420416363656C65726174696F6E3A26
:1004D000200053657474696E67205072696E7420D1
:1004E000616E642054726176656C20416363656C53
:1004F00065726174696F6E3A2000205A00205900BD
:10050000580020204D61783A2000205A00205900E0
:10051000580020204D696E3A20004F6E20004F6633
:100520006600536F667420656E6473746F70733AFF
:10053000200000010F150E12FF16170E13FF030205
:100540001A14FFFFFF0C04FFFFFF01000EFFFF0C5A
:10055000190DFF18FFFFFFFFFFFF206F7574206F5D
:10056000662072616E67650A00536572766F2000BF
:100570003A200020536572766F200020643A0020F4
:10058000693A0020703A0043290A0061626C656490
:1005900020286D696E2074656D702000436F6C6457
:1005A000206578747275646573206172652000231C
:1005B000646566696E65202044454641554C545F2C
:1005C0004B64200023646566696E652020444546BF
:1005D00041554C545F4B69200023646566696E6524
:1005E000202044454641554C545F4B7020005049F3
:1005F00044204175746F74756E652066696E697309
:10060000686564212050757420746865206C61737E
:1006100074204B702C204B6920616E64204B642049
:10062000636F6E7374616E74732066726F6D206297
:10063000656C6F7720696E746F20436F6E666967B3
:1006400075726174696F6E2E680A005049442041CA
:1006500075746F74756E65206661696C65642120C0
:1006600074696D656F75740A005049442041757452
:100670006F74756E65206661696C656421205465D0
:100680006D706572617475726520746F6F20686932
:1006900067680A00204B643A2000204B693A20002A
:1006A000204B703A20000A20436C61737369632009
:1006B000504944200A002054753A2000204B753AD6
:1006C0002000206D61783A2000206D696E3A20008C
:1006D00020643A200020626961733A20004D6573FE
:1006E0006820706F696E742063616E6E6F74206233
:1006F00065207265736F6C7665640A004D34323123
:1007000020696E636F727265637420706172616DCF
:10071000657465722075736167650A003A20007A16
:100720005F6D696E3A20202D3230207A5F6D6178DE
:100730003A20203230005A204F66667365742000DC
:100740004E6F2063617365206C696768740A0041AD
:1007500063746976652045787472756465723A20B1
:1007600000556E6B6E6F776E20636F6D6D616E649A
:100770003A2022004E6F204C696E65204E756D62E6
:100780006572207769746820636865636B73756D43
:100790002C204C617374204C696E653A20004B49E3
:1007A0004C4C45442E200053544F505045442E206D
:1007B000005072696E7465722073746F7070656436
:1007C0002064756520746F206572726F72732E20BD
:1007D00046697820746865206572726F7220616E58
:1007E0006420757365204D39393920746F20726526
:1007F00073746172742E202854656D706572617413
:100800007572652069732072657365742E20536557
:1008100074206974206166746572207265737461F6
:100820007274696E67290A004E6F20436865636BB6
:1008300073756D2077697468206C696E65206E75BC
:100840006D6265722C204C617374204C696E653A40
:100850002000636865636B73756D206D69736D61EE
:100860007463682C204C617374204C696E653A2067
:10087000004C696E65204E756D626572206973204B
:100880006E6F74204C617374204C696E65204E75D8
:100890006D6265722B312C204C617374204C696E33
:1008A000653A20004D313130004D3331004D383440
:1008B00020582059205A2045005446207265616412
:1008C000206572726F720A00446F6E6520707269E3
:1008D0006E74696E672066696C650A0020496E76E1
:1008E000616C696420657874727564657220005368
:1008F000544F505045442E20005072696E746572FA
:100900002073746F707065642064756520746F2047
:100910006572726F72732E20466978207468652044
:100920006572726F7220616E6420757365204D3937
:10093000393920746F20726573746172742E2028A7
:1009400054656D706572617475726520697320728B
:10095000657365742E205365742069742061667414
:1009600065722072657374617274696E67290A001A
:1009700053544F502063616C6C6564206265636101
:10098000757365206F6620424C546F7563682065EF
:1009900072726F72202D2072657374617274207789
:1009A000697468204D3939390A000000200023009D
:1009B00026002900020202020202020204040404C8
:1009C00004040404030303030303030301010101FB
:1009D0000101010101020408102040800102040805
:1009E0001020408001020408102040808040201028
:1009F00008040201000000010200090A00000000D2
:100A000004030807000000000000000000000000D0
:100A1000000000004B494C4C45442E2000202D2066
:100A2000496E76616C69642065787472756465726C
:100A3000206E756D62657220210A002020506C6165
:100A40006E6E657242756666657242797465733A58
:100A500020002046726565204D656D6F72793A20E1
:100A600000436F6D70696C65643A204A616E203294
:100A70003920323032300A00207C20417574686F92
:100A8000723A202843522D313020424C546F756306
:100A900068290A00323031392D30342D31320020AE
:100AA0004C61737420557064617465643A20003140
:100AB0002E312E36424C5F56330A004D61726C69FE
:100AC0006E0020536F66747761726520526573659E
:100AD000740A00205761746368646F6720526573FD
:100AE00065740A002042726F776E206F7574205211
:100AF000657365740A002045787465726E616C20B8
:100B000052657365740A00506F77657255700A00FC
:100B100073746172740A006572726F722077726901
:100B200074696E6720746F2066696C650A00456E93
:100B30006473746F70732025632025632025632000
:100B4000256300205A3A0020593A0020583A00659F
:100B50006E6473746F7073206869743A2000446F18
:100B60006E6520736176696E672066696C652E0A12
:100B7000004D32390000002100240027002A000027
:100B8000002200250028002B007C3C3E5E2B3D3FD0
:100B90002F5B5D3B2C2A225C0056652D6A65726BCB
:100BA0000056652D6A65726B0056652D6A65726B1D
:100BB00000567A2D6A65726B00567A2D6A65726BE3
:100BC0000056792D6A65726B0056792D6A65726BD5
:100BD0000056792D6A65726B0056782D6A65726BC6
:100BE0000056782D6A65726B0056782D6A65726BB7
:100BF000004D6F74696F6E004573746570732F6D6F
:100C00006D004573746570732F6D6D005A73746554
:100C100070732F6D6D005A73746570732F6D6D0056
:100C20005973746570732F6D6D00597374657073AB
:100C30002F6D6D005873746570732F6D6D00587350
:100C4000746570732F6D6D004D6F74696F6E005316
:100C5000746570732F6D6D004A65726B004163633C
:100C6000656C65726174696F6E0056656C6F63695F
:100C70007479005A204F6666736574005A204F6677
:100C80006673657400436F6E74726F6C0046696CB6
:100C90002E204469612E0046696C2E204469612E25
:100CA000004F6666004F6E20004520696E206D6D16
:100CB0003300436F6E74726F6C0043616E6E6F74BD
:100CC00020656E746572207375626469723A2000E3
:100CD000022E2E000152656672657368004D6169CF
:100CE0006E00506C656173652072657365740050A9
:100CF00052494E5445522048414C5445440050728C
:100D0000696E7465722068616C7465642E206B690D
:100D10006C6C28292063616C6C6564210A0062692F
:100D20006E004D31313720494E56414C49442044E4
:100D30004154412E004D313137205072696E746933
:100D40006E672E2E2E004730205A2573004732380A
:100D5000205830205930004730205A257300473939
:100D600032205A2573204525730062696E00000009
:100D700000000000000000000000000048420000E9
:100D8000484200008040000000005761726E696EAA
:100D9000673A20486F6D696E672042756D70204418
:100DA000697669736F72203C20310A0002020400E8
:100DB00000A0400000A0400000004000009B430055
:100DC000009B430000CD43FFFFFF70012C01900109
:100DD0002701B0012201C0011D01F001180110021C
:100DE000130130020E016002090190020401C002E9
:100DF000FF000003FA004003F5008003F000D00379
:100E0000EB002004E6007004E100E004DC00400593
:100E1000D700C005D2004006CD00D006C80080072C
:100E2000C3003008BE00F008B900C009B400B00A21
:100E3000AF00B00BAA00D00CA500000EA000500F10
:100E40009B00C01096005012910000148C00C01539
:100E50008700B0178200B0197D00D01B7800001EFB
:100E6000730040206E0090226900F0246400402747
:100E70005F0090295A00E02B5500102E50002030C2
:100E80004B0010324600E033410090353C001037F3
:100E9000370070383200A0392D00B03A2800A03B4E
:100EA0002300603C1E00103D1900903D1400103ED0
:100EB0000F00703E0A00C03E0500003F0000403FAA
:100EC000FBFF803FF6FFC03FF1FF4572723A204DB5
:100ED000494E54454D5020424544004572723A20D7
:100EE0004D494E54454D50004D494E54454D5020AE
:100EF000747269676765726564004572723A204D65
:100F0000415854454D5020424544004572723A20A4
:100F10004D415854454D50004D415854454D502079
:100F2000747269676765726564004D6F76652058F5
:100F3000004D6F76652059004D6F7665205A00454B
:100F400078747275646572004D6F766520302E314D
:100F50006D6D004D6F766520316D6D004D6F76655E
:100F60002031306D6D004D6F7665206178697300BA
:100F70004578747275646572004D6F7665205A000D
:100F80004D6F76652059004D6F7665205800457885
:100F9000747275646572004D6F7665205A004D6FEE
:100FA00076652059004D6F76652058005072657047
:100FB000617265004C6F61642073657474696E675B
:100FC0007300496E697469616C697A6520454550A2
:100FD000524F4D0053746F72652073657474696E5F
:100FE000677300424C546F7563680046696C616DAD
:100FF000656E74004D6F74696F6E0054656D706539
:10100000726174757265004D61696E005072656839
:101010006561742041425320636F6E6600507265B3
:101020006865617420504C4120636F6E66004661B4
:101030006E2073706565640046616E20737065652F
:10104000640046616E2073706565640042656400EB
:10105000426564004E6F7A7A6C65004E6F7A7A6CE6
:101060006500436F6E74726F6C0053746F7265200D
:1010700073657474696E67730042656400426564E9
:1010800000426564004E6F7A7A6C65004E6F7A7A22
:101090006C65004E6F7A7A6C650046616E207370E5
:1010A0006565640046616E20737065656400466125
:1010B0006E2073706565640054656D70657261744F
:1010C0007572650047302046333630302058313550
:1010D0003520593135350042696C696E6561722081
:1010E0004C6576656C696E6720477269643A0A00E0
:1010F00020706F736974696F6E206F7574206F66EE
:101100002072616E67652E0A003F50726F62652023
:1011100000486F6D652025732573257320666972FD
:101120007374002066697273740A005A005900587B
:1011300000486F6D65200052756E6E696E6720699C
:101140006E204452592D52554E206D6F64650A0031
:10115000473239204175746F20426564204C6576B2
:10116000656C696E670A0028422961636B00284636
:1011700029726F6E74002852296967687400284CC0
:1011800029656674003F2856296572626F73652071
:101190006C6576656C20697320696D706C61757320
:1011A00069626C652028302D34292E0A0042616462
:1011B000205A2076616C75650A004E6F2062696C5A
:1011C000696E65617220677269640A00202F0020D1
:1011D00042403A0020403A0000060900FE07019212
:1011E000032120FFFF08FF07FF00000006000001A9
:1011F00007070602008080808080008003020206CC
:101200000105A0A00507070600005050F850F8504F
:10121000500507070600002078A07028F020050779
:1012200007060000C0C810204098180507070600F0
:10123000006090A040A89068020303060104C0402B
:1012400080030707060100204080808040200307BC
:10125000070601008040202020408005050506008B
:101260000120A870A8200505050600012020F8200F
:10127000200203030602FFC04080050101060003AF
:10128000F8020202060200C0C005050506000108BA
:10129000102040800507070600007088888888882D
:1012A0007003070706010040C040404040E00507CA
:1012B00007060000708808708080F80507070600A0
:1012C00000F81020100808F005070706000010308D
:1012D0005090F81010050707060000F880F0080885
:1012E0008870050707060000708080F08888700508
:1012F0000707060000F80810202020200507070631
:1013000000007088887088887005070706000070E4
:10131000888878080870020505060200C0C000C071
:10132000C00206060602FFC0C000C04080040707D6
:101330000600001020408040201005030306000234
:10134000F800F804070706010080402010204080C4
:101350000507070600007088081020002005070711
:1013600006000070880868A8A87005070706000036
:10137000708888F8888888050707060000F0888844
:10138000F08888F005070706000070888080808854
:1013900070050707060000F08888888888F0050730
:1013A00007060000F88080F08080F8050707060037
:1013B00000F88080F08080800507070600007088B4
:1013C00080B8888870050707060000888888F88834
:1013D0008888010707060200808080808080800561
:1013E0000707060000381010101090600507070668
:1013F00000008890A0C0A090880507070600008024
:101400008080808080F805070706000088D8A888BB
:101410008888880507070600008888C8A8988888F3
:101420000507070600007088888888887005070708
:10143000060000F08888F08080800507070600001D
:1014400070888888A89068050707060000F08888DB
:10145000F0A09088050707060000788080700808D3
:10146000F0050707060000F82020202020200507AF
:1014700007060000888888888888700507070600A6
:10148000008888888888502005070706000088881B
:10149000888888A8500507070600008888502050D3
:1014A00088880507070600008888885020202005C6
:1014B0000707060000F80810204080F80307070619
:1014C0000100E08080808080E00505050600018045
:1014D00040201008030707060100E02020202020FC
:1014E000E005030306000420508805010106000002
:1014F000F80202020602058040050505060000709C
:10150000087888780507070600008080B0C88888BA
:10151000F005050506000070808088700507070645
:10152000000008086898888878050505060000709E
:1015300088F880700507070600003048E04040400A
:10154000400506060600FF708888780870050707C2
:101550000600008080B0C88888880107070602005E
:10156000800080808080800308080601FF20002022
:10157000202020A040040707060000808090A0C023
:10158000A090030707060100C04040404040E0052E
:101590000505060000D0A8A8A8A8050505060000B6
:1015A000B0C888888805050506000070888888709E
:1015B0000506060600FFF08888F08080050606060E
:1015C00000FF788888780808050505060000B0C87F
:1015D00080808005050506000070807008F0040713
:1015E000070600004040E040404030050505060089
:1015F0000088888898680505050600008888885056
:10160000200505050600008888A8A85005050506E0
:10161000000088502050880506060600FF8888884C
:10162000780870050505060000F8102040F803074B
:1016300007060100204040804040200107070602C5
:101640000080808080808080030707060100804042
:101650004020404080050202060002689000000021
:101660000600000000000600000000000600000068
:101670000000060000000000060000000000060058
:10168000000000000600000000000600000000004E
:101690000600000000000600000000000600000038
:1016A0000000060000000000060000000000060028
:1016B000000000000600000000000600000000001E
:1016C0000600000000000600000000000600000008
:1016D00000000600000000000600000000000600F8
:1016E00000000000060000000000060000000000EE
:1016F00006000000000006000000000006000000D8
:1017000000000600000000000600000000000600C7
:1017100000000000060000000000060000000000BD
:101720000600000000000600000107070602008016
:101730000080808080800507070600002070A8A038
:10174000A87020050707060000304040E04050A880
:10175000050505060000887050708805070706001B
:1017600000885020F820F82001070706020080803A
:101770008000808080050808060000304820505016
:10178000209060030101060107A00507070600007D
:10179000F888B8B8B888F805070706000170087817
:1017A000887800F80505050600012850A050280596
:1017B0000303060001F80808020202060206408040
:1017C000050707060000F888A88898A8F805010111
:1017D000060006F804040406000360909060050704
:1017E000070600002020F8202000F8040505060068
:1017F0000360902040F0030505060003E020E02090
:10180000E002020206020640800508080600FF8882
:1018100088888898E88080050707060000789898EF
:1018200078181818020202060202C0C0020202065C
:1018300002FF408003050506000340C04040E0056C
:101840000707060001708888887000F805050506FE
:101850000001A0502850A00507070600008890A8A6
:1018600058B808080507070600008890B84898206F
:1018700038050808060000C040C048D838080805E8
:101880000707060000200020408088700508080631
:1018900000004020007088F88888050808060000CD
:1018A0001020007088F8888805080806000020507D
:1018B000007088F8888805080806000068900070A5
:1018C00088F888880508080600005000708888F8A5
:1018D00088880508080600002050207088F888884D
:1018E0000507070600003860A0B8E0A0B8050808A2
:1018F0000600FF7088808088702060050808060058
:1019000000402000F880F080F80508080600000874
:101910001000F880F080F80508080600002050004C
:10192000F880F080F80507070600005000F880F006
:1019300080F8030808060100804000E0404040E0D5
:10194000030808060100204000E0404040E0030892
:101950000806010040A000E0404040E00307070601
:101960000100A000E0404040E005070706000070CD
:101970004848E84848700508080600006890008854
:10198000C8A8988805080806000040207088888844
:101990008870050808060000102070888888887004
:1019A0000508080600002050007088888870050827
:1019B000080600006890007088888870050808068E
:1019C00000005000708888888870050505060001B1
:1019D00088502050880508080600FF1070A8A8A8A5
:1019E000A87040050808060000402088888888887C
:1019F000700508080600001020888888888870050F
:101A000008080600002050008888888870050808AB
:101A1000060000500088888888887005080806003D
:101A20000010208850202020200509090600FFC052
:101A300040704848704040E00408080601FF60908C
:101A400090A09090E08005080806000040200070FB
:101A500008788878050808060000102000700878CB
:101A600088780508080600002050007008788878FB
:101A70000508080600006890007008788878050757
:101A800007060000500070087888780508080600EE
:101A9000002050207008788878050606060000D0DF
:101AA0002878A0A8500506060600FF7080887020E0
:101AB000600508080600004020007088F880700566
:101AC00008080600001020007088F88070050808DB
:101AD0000600002050007088F88070050707060097
:101AE0000050007088F880700308080601008040EC
:101AF0000040C04040E003080806010020400040CC
:101B0000C04040E003080806010040A00040C0407B
:101B100040E0030707060100A00040C04040E00588
:101B20000707060000A040A0107888700508080686
:101B30000000689000B0C888888805080806000082
:101B40004020007088888870050808060000102072
:101B50000070888888700508080600002050007012
:101B600088888870050808060000689000708888DA
:101B70008870050707060000500070888888700587
:101B800005050600012000F800200507070600FFF4
:101B90001070A8A8A87040050808060000402000A2
:101BA0008888889868050808060000102000888842
:101BB00088986805080806000020500088888898E2
:101BC000680507070600005000888888986805099E
:101BD000090600FF102000888888F80870040707AD
:101BE0000601FFC04060506040E00508080600FFA5
:101BF000500088888878087043616E6E6F74206F1B
:101C000070656E2073756264697220002E0A006F21
:101C100070656E206661696C65642C2046696C6530
:101C20003A200057726974696E6720746F20666984
:101C30006C653A2000656E7175657565696E672023
:101C400022006563686F3A004572726F7220777286
:101C50006974696E6720746F20454550524F4D215D
:101C60000A0020636F6C6420657874727573696F05
:101C70006E2070726576656E7465640A0050726FCE
:101C800062696E67206661696C65640A0050726FF4
:101C900062696E67206661696C656400205A3A204B
:101CA0000020593A200042656420583A20002E0A4C
:101CB0000046696C652862696E292064656C6574EC
:101CC00065640044656C6574696F6E2862696E298D
:101CD000206661696C65640054462063617264200B
:101CE0006F6B0A006F70656E526F6F74206661696A
:101CF0006C65640A00766F6C756D652E696E69742B
:101D0000206661696C65640A00544620696E6974D6
:101D1000206661696C0A0025753A25303275002508
:101D20003032753A25303275002575642025303201
:101D3000753A25303275005A0059005800092000C4
:101D40003CF00041C000000000000000003FFFF038
:101D5000408800C220000000000000000038007031
:101D60004088004220000000000000000030FC30ED
:101D70004088F84220000000000000000020FC1015
:101D800040F0004220000000000000000020781019
:101D900040880042200000000000000000203010B9
:101DA000408800422000000000000000002C00D00D
:101DB0003C880041C01FE00000104100002E31D0DF
:101DC00000000000003FF00000082080002F7BD0C2
:101DD00000000000003FF00000082080002F7BD0B2
:101DE00000000000003FF00000104100002E31D044
:101DF000007870E0001FE00000208200002C00D07E
:101E000000088910001FE00000410400002030108D
:101E100000088910003FF000004104000020781005
:101E200000788910003FF000002082000020FC10A4
:101E300000088910003FF000001041000030FC3025
:101E400000088910000FC00000000000003800707A
:101E5000000889100007800000FFFFC0003FFFF06E
:101E6000007870E00003000000FFFFC000000000E9
:101E70003CF00041C000000000000000003FFFF007
:101E8000408800C220000000000000000038007000
:101E9000408800422000000000000000003387302E
:101EA0004088F842200000000000000000278790D2
:101EB00040F000422000000000000000002F87D00A
:101EC000408800422000000000000000002F87D062
:101ED000408800422000000000000000002F03D0D6
:101EE0003C880041C01FE000000820800020301026
:101EF00000000000003FF0000004104000207810B7
:101F000000000000003FF0000004104000207810A6
:101F100000000000003FF00000082080002030108A
:101F2000007870E0001FE00000104100002F03D097
:101F300000088910001FE00000208200002F87D0D9
:101F400000088910003FF00000208200002F87D099
:101F500000788910003FF0000010410000278790B2
:101F600000088910003FF00000082080003387300F
:101F700000088910000FC000000000000038007049
:101F8000000889100007800000FFFFC0003FFFF03D
:101F9000007870E00003000000FFFFC000000000B8
:101FA0005072696E742070617573656400473020EB
:101FB00046313230302058302059300000060900B8
:101FC000FE000000000001090008FE0000050808EE
:101FD00006000040F0C888889878100508080600B8
:101FE00000C0F88888888888F80505050600012063
:101FF00030F830200508080600002070F820202066
:1020000020E00509090600FF2070A8A8B88888709C
:10201000200509090600FFE080C0B0A82830282864
:102020000509090600FFF8A88888888888A8F805A7
:102030000A0A0600FE205050505088A8A888700355
:10204000030306000340A040004730205A257300D8
:102050004D31303920532569004D3134302053251E
:1020600069004D3130362053323535004D3130392D
:1020700020532569004D31393020532569005072B5
:10208000696E742061626F727465640053746F705E
:10209000207072696E7400526573756D6520707280
:1020A000696E7400506F7765722D4C6F7373205298
:1020B00065636F76657279203F0053746F772042B5
:1020C0004C546F756368004D3238302050302053C7
:1020D0003930004465706C6F7920424C546F7563E1
:1020E00068004D3238302050302053313000424C9F
:1020F000546F7563682053656C662D546573740066
:102100004D32383020503020533132300052657318
:10211000657420424C546F756368004D323830202E
:1021200050302053313630004D61696E004E6F20C3
:1021300054462063617264004368616E6765205491
:10214000462063617264004D3231005072696E74D2
:102150002066726F6D2054460053746F7020707249
:10216000696E7400526573756D65207072696E7466
:10217000004D3231005061757365207072696E7464
:102180000053746F70207072696E740052657375BD
:102190006D65207072696E7400496E69742E2054EA
:1021A00046206361726400506175736520707269C6
:1021B0006E7400436F6E74726F6C00507265706164
:1021C00072650054756E6500496E666F20736372A8
:1021D00065656E0024F4D43050C38E20C2A240172F
:1021E000828B7011127A910D816CD90AA861E10875
:1021F000C7586607615143061E4B5D05C145A704DC
:102200001A411104093D9803713931034036DB024C
:1022100065339102D4305402802E1D02632CEE01EE
:10222000752AC501B028A001102781018F256401FE
:102230002B244B01E0223401AC211F018D200D0124
:10224000801FFC00841EED00971DDF00B81CD2002B
:10225000E61BC600201BBC00641AB200B219A8001D
:102260000A19A0006A189900D117910040178B0035
:10227000B516840031167E00B31579003A15730047
:10228000C7146F0058146A00EE13660088136300C9
:1022900025135E00C7125B006C1257001512540024
:1022A000C111510070114F0021114B00D61049008F
:1022B0008D1047004610440002104200C00F40003D
:1022C000800F3E00420F3C00060F3B00CB0E380053
:1022D000930E37005C0E3500270E3400F30D3200EC
:1022E000C10D3100900D3000600D2E00320D2D001B
:1022F000050D2C00D90C2B00AE0C2900850C2900F3
:102300005C0C2700350C27000E0C2600E80B24007F
:10231000C40B2400A00B23007D0B23005A0B2100CB
:10232000390B2100180B2000F80A1F00D90A1E00E3
:10233000BB0A1E009D0A1D00800A1D00630A1C00C6
:10234000470A1B002C0A1B00110A1A00F7091A0081
:10235000DD091900C4091900AB0919009209170019
:102360007B091800630917004C091600360916008E
:10237000200916000A091500F5081500E0081400E8
:10238000CC081400B8081400A40814009008130026
:102390007D0812006B08130058081200460812004E
:1023A000340811002308110012081100010811005F
:1023B000F0071000E0071000D0071000C007100061
:1023C000B0070F00A107100091070E0083070F0050
:1023D00074070F0065070E0057070E0049070E002F
:1023E0003B070D002E070E0020070D0013070D0000
:1023F00006070D00F9060C00ED060D00E0060C00C6
:10240000D4060C00C8060C00BC060C00B0060C007C
:10241000A4060B0099060C008D060B0082060B002B
:1024200077060B006C060B0061060A0057060B00CE
:102430004C060A0042060A0038060A002E060A0068
:1024400024060A001A060A001006090007060A00F8
:10245000FD050900F4050900EB050900E205090086
:10246000D9050900D0050900C7050900BE05090006
:10247000B5050800AD050800A50509009C05080084
:10248000940508008C050800840508007C050800F8
:10249000740508006C050700650508005D05070068
:1024A000560508004E0507004705070040050800CF
:1024B00038050700310507002A0507002305070036
:1024C0001C050600160507000F0507000805060095
:1024D00002050700FB040600F5040700EE040600F1
:1024E000E8040600E2040700DB040600D504060049
:1024F000CF040600C9040600C3040600BD0406009C
:10250000B7040600B1040500AC040600A6040600EA
:10251000A00405009B040600950405009004060035
:102520008A04050085040500800406007A0405007D
:1025300075040500700405006B04050066040500C1
:10254000610405005C040500570405005204050001
:102550004D04050048040500430405003E04040042
:102560003A04050035040500300404002C0405007D
:1025700027040400230405001E0404001A040400B8
:1025800016040500110404000D04040009040500EC
:102590000404040000040400FC030400F803040025
:1025A000F4030400F0030400EC030400E803040057
:1025B000E4030400E0030400DC030400D803040087
:1025C000D4030400D0030400CC030400C8030300B8
:1025D000C503030024F404D9201BC40C5C0E98042A
:1025E000C4095F0265077101F405F900FB04B3003B
:1025F00048048700C10369005803550003034500E0
:10260000BE023A008402310053022A00290225004A
:1026100004022000E4011C00C8011900AF011700EA
:102620009801140084011300710110006101100071
:1026300051010E0043010D0036010B002B010B0070
:1026400020010B00150109000C010900030108001D
:10265000FB000800F3000800EB000700E4000600A0
:10266000DE000600D8000600D2000600CC000500FF
:10267000C7000500C2000500BD000400B900040049
:10268000B5000400B1000400AD000400A90004007E
:10269000A5000300A20003009F0004009B000300AC
:1026A00098000300950002009300030090000300CF
:1026B0008D0002008B0003008800020086000200EB
:1026C00084000300810002007F0002007D00020000
:1026D0007B00020079000200770001007600020012
:1026E0007400020072000100710002006F0002001D
:1026F0006D0001006C0002006A0001006900020028
:10270000670001006600010065000100640002002E
:102710006200010061000100600001005F00020032
:102720005D0001005C0001005B0001005A00010037
:102730005900010058000100570001005600010037
:102740005500010054000100530000005300010037
:102750005200010051000100500001004F00010033
:102760004E0000004E0001004D0001004C00010031
:102770004B0000004B0001004A000100490001002D
:10278000480000004800010047000100460000002A
:102790004600010045000000450001004400010022
:1027A000430000004300010042000000420001001D
:1027B0004100000041000100400001003F00000016
:1027C0003F0001003E0000003E0001003D0000000F
:1027D0003D0001003C0000003C0000003C00010006
:1027E0003B0000003B0001003A0000003A000100FD
:1027F00039000000390001003800000038000000F6
:1028000038000100370000003700010036000000EA
:1028100036000000360001003500000035000000E1
:1028200035000100340000003400000034000100D5
:1028300033000000330000003300010032000000CC
:1028400032000000320001003100000031000000C1
:1028500031000100300000003000000030000100B5
:102860002F0000002F0000002F0000002F000100AB
:102870002E0000002E0000002E0001002D000000A0
:102880002D0000002D0000002D0001002C00000094
:102890002C0000002C0000002C0001002B00000088
:1028A0002B0000002B0000002B0001002A0000007C
:1028B0002A0000002A0000002A0001002900000070
:1028C0002900000029000000290000002900010063
:1028D0002800000028000000280000002800000058
:1028E000280001002700000027000000270000004A
:1028F000270000002700010026000000260000003D
:10290000260000002600000026000100250000002F
:102910002500000025000000250000002500000023
:102920002500010024000000240000002400000015
:102930002400000024000100230000002300000008
:1029400023000000230000002300000023000000FB
:1029500023000100220000002200000022000000ED
:1029600022000000220000002200010021000000DF
:1029700021000000210000002100000021000000D3
:1029800021000000210001002000000020000000C4
:1029900020000000200000002000000020000000B7
:1029A00020000000200001001F0000001F000000A8
:1029B0001F0000001F0000001F0000001F0000009B
:1029C0001F0001001E0000001E0000001E0000008D
:1029D0001E0000004D383420582059205A20450050
:1029E000466C6F7700466C6F7700466C6F770046D9
:1029F000616E2073706565640046616E207370655A
:102A000065640046616E20737065656400426564AC
:102A100000426564004E6F7A7A6C65004E6F7A7A78
:102A20006C650053706565640053706565640053A0
:102A300070656564004D61696E005072656865611E
:102A40007420504C4120456E640050726568656189
:102A50007420504C41204265640050726568656185
:102A60007420504C41005072657061726500507264
:102A700065686561742041425320456E6400507260
:102A8000656865617420414253204265640050725C
:102A900065686561742041425300507265706172CF
:102AA0006500473238005072656865617420504C8B
:102AB0004100436F6F6C646F776E0050726568659C
:102AC0006174204142530044697361626C652073F4
:102AD00074657070657273004D383400426564200F
:102AE0004C6576656C696E67004732380A47323943
:102AF000004175746F20686F6D65004D6F766520BD
:102B000061786973004D61696E00526573656E642A
:102B10003A20006F6B0020636F6C642065787472DC
:102B20007573696F6E2070726576656E7465640A80
:102B300000627573793A2070617573656420666F01
:102B40007220696E7075740A00627573793A20702C
:102B5000617573656420666F7220757365720A0013
:102B6000627573793A2070726F63657373696E670B
:102B70000A004B494C4C45442E20004B494C4C20FC
:102B800063617573656420627920746F6F206D7561
:102B9000636820696E6163746976652074696D6528
:102BA000202D2063757272656E7420636F6D6D6188
:102BB0006E643A2000F4010000F40100006400009B
:102BC00000E80300000000FA430000FA430000A000
:102BD000400000C8410000A0420000A0420000C820
:102BE000430000BA4220204D383531205A005A2D7A
:102BF00050726F6265204F666673657420286D6D34
:102C0000293A0A0020440020490020204D33303169
:102C10002050005049442073657474696E67733A9C
:102C20000A0020460020420020480020204D313478
:102C3000352053004D6174657269616C206865616F
:102C400074757020706172616D65746572733A0A93
:102C500000205A0020204D3432302053004175743A
:102C60006F20426564204C6576656C696E673A0A30
:102C700000204500205A0020590020580020420022
:102C800020540020204D32303520530041647661BD
:102C90006E6365643A20533C6D696E5F666565647A
:102CA000726174653E20543C6D696E5F747261762A
:102CB000656C5F66656564726174653E20423C6D5B
:102CC000696E5F7365676D656E745F74696D655F6E
:102CD0006D733E20583C6D61785F78795F6A6572EC
:102CE0006B3E205A3C6D61785F7A5F6A65726B3E1D
:102CF00020453C6D61785F655F6A65726B3E0A00D6
:102D000020540020520020204D3230342050004109
:102D10006363656C65726174696F6E2028756E6996
:102D200074732F7332293A20503C7072696E745F4D
:102D3000616363656C3E20523C72657472616374BA
:102D40005F616363656C3E20543C74726176656CB0
:102D50005F616363656C3E0A00204500205A0020D5
:102D6000590020204D3230312058004D6178696D76
:102D7000756D20416363656C65726174696F6E2067
:102D800028756E6974732F7332293A0A0020450042
:102D9000205A0020590020204D3230332058004D59
:102DA0006178696D756D20666565647261746573BF
:102DB0002028756E6974732F73293A0A0020450024
:102DC000205A0020590020204D39322058005374D9
:102DD0006570732070657220756E69743A0A002000
:102DE000204D3230302044300A0020204D32303027
:102DF0002044002044697361626C65640A0046697E
:102E00006C616D656E742073657474696E67733A76
:102E10000020204D3134392043203B20556E697409
:102E20007320696E2043656C736975730A002020F6
:102E3000473231202020203B20556E697473206971
:102E40006E206D6D0A006F6B0048656174696E6776
:102E500020646F6E652E0020573A004578747275B5
:102E6000646572202573004D313133205300435285
:102E70002D3130204F66662E00205A3A0020593AF4
:102E80000020436F756E7420583A0020453A0020A8
:102E90005A3A0020593A00583A004F66660A0046EE
:102EA0006164652048656967687420004265642034
:102EB0004C6576656C696E6720004661696C656477
:102EC00020746F20656E61626C6520426564204CE1
:102ED0006576656C696E670A005654726176206D7E
:102EE000696E005654726176206D696E0056547298
:102EF0006176206D696E00566D696E00566D696E63
:102F000000566D696E00566D6178204500566D6102
:102F100078204500566D6178204500566D61782017
:102F20005A00566D6178205A00566D6178205A001B
:102F3000566D6178205900566D6178205900566DA4
:102F40006178205900566D6178205800566D61787F
:102F5000205800566D61782058004D6F74696F6E6F
:102F600000416D6178204500416D61782045004148
:102F70006D6178205A00416D6178205A00416D6181
:102F800078205900416D6178205900416D617820A9
:102F90005800416D6178205800412D74726176654A
:102FA0006C00412D74726176656C00412D72657400
:102FB0007261637400412D726574726163740041C3
:102FC0006363656C00416363656C004D6F74696F8A
:102FD0006E006175746F25692E67004D3234004DA7
:102FE00032332025730057726974696E6720746FDD
:102FF0002066696C653A20006F70656E20666169B5
:103000006C65642C2046696C653A20006F70656EB3
:10301000206661696C65642C2046696C653A200005
:1030200046696C652073656C65637465640A00208D
:1030300053697A653A200046696C65206F70656E49
:1030400065643A20006F70656E206661696C656426
:103050002C2046696C653A20002066696C653A2030
:10306000004E6F7720002220706F73002220706165
:1030700072656E743A2200535542524F5554494E70
:10308000452043414C4C207461726765743A2200BC
:103090004B494C4C45442E2000747279696E672070
:1030A000746F2063616C6C207375622D67636F644D
:1030B000652066696C6573207769746820746F6F2A
:1030C000206D616E79206C6576656C732E204D41A4
:1030D00058206C6576656C2069733A004572726F92
:1030E000723A006265640A002C2073797374656D0E
:1030F0002073746F70706564212048656174657217
:103100005F49443A200048656174696E67206661D2
:10311000696C65640048656174696E672066616901
:103120006C65640048656174696E67206661696CEE
:1031300065640048656174696E67206661696C65E5
:103140006400544845524D414C2052554E41574120
:103150005900546865726D616C2052756E617761BB
:1031600079004E414E494E495459494E46CDCCCC3A
:103170003D0AD7233C17B7D13877CC2B329595E64B
:10318000241FB14F0A000020410000C84200401C2B
:103190004620BCBE4CCA1B0E5AAEC59D7400407A78
:1031A00010F35A00A0724E18090010A5D4E80000D0
:1031B000E87648170000E40B54020000CA9A3B006E
:1031C0000000E1F505000080969800000040420FE5
:1031D000000000A08601000000102700000000E8A9
:1031E00003000000006400000000000A000000006E
:1031F000000100000000002C76D888DC674F08230F
:10320000DFC1DFAE59E1B1B796E5E3E453C63AE674
:1032100051997696E8E6C28426EB898C9B62ED4054
:103220007C6FFCEFBC9C9F40F2BAA56FA5F49005A3
:103230005A2AF75C936B6CF9676DC11BFCE0E40DD7
:1032400047FEF520E6B500D0ED902E0300943577CB
:10325000050080841E080000204E0A000000C80CF3
:10326000333333330F986E12831141EF8D2114895C
:103270003BE65516CFFEE6DB18D1844B381BF77CB6
:103280001D901DA4BBE424203284725E228100C9FB
:10329000F124ECA1E53D270000E7D4E311241FBE93
:1032A000CFEFD0E4DEBFCDBF13E0A0E0B1E0EAEDA8
:1032B000F1EF01E00BBF02C007900D92A63CB107F1
:1032C000D9F72AE1A6ECB3E001C01D92AC30B207F9
:1032D000E1F719E1CDE4D9E104C02197FE010E9494
:1032E0008DEACC34D107C9F70E94BADE0C94E0F81D
:1032F0000C9400002F923F924F925F926F927F92B8
:103300008F929F92AF92BF92CF92DF92EF92FF92F5
:103310000F931F93CF93DF93CDB7DEB7CD55D10970
:103320000FB6F894DEBF0FBECDBF0091180620E6A1
:10333000029F8001112408561B4F8091790E80FF57
:103340001AC0E2E4FCE184917F013FEFE31AF30A43
:10335000811102C0780104C00E948C36F701F3CFBE
:10336000D7018D917D01882319F00E948C36F8CF0A
:103370008AE00E948C3681E090E090930817809359
:1033800007171092E7031092E6038FE38093EF0391
:103390001092EE031092ED031092E0031092E103FD
:1033A0001092E2031092E303F80180810F5F1F4F38
:1033B0008032D1F38E34B1F4818190ED980F9A3040
:1033C00020F08D3211F08B3269F43296DF013196A4
:1033D0002C9120532A30D0F3CD01FC01019620819D
:1033E0002032D9F3F0930F17E0930E177F01BFEF50
:1033F000EB1AFB0A10816AE270E0C7010E94ECEC54
:10340000009731F0FC01319780818032E1F3118225
:103410001D3429F0143519F0173409F0CEC0F70126
:1034200080812FEFE21AF20A8032C9F380538A308A
:1034300008F0C3C01093EF032091ED033091EE0329
:103440004AE03196429FC001439F900D1124DF0155
:1034500011972C91022E000C330B20533109280FA9
:10346000391F808180538A3060F33093EE032093BC
:10347000ED03DF0131968C918032D9F31D3451F088
:1034800000910E176091E6037091E70388248394FE
:10349000912C55C02E31310591F03CF42731310586
:1034A00071F02C31310561F70AC02537310544F33D
:1034B0002737310524F0203A43E0340709F7B09369
:1034C000E703A093E60379C0413209F442C0EFEB71
:1034D000E40FEA3108F05DC0DC017D015D915032FE
:1034E000E1F3C701A0EDA50FAA3008F046C0DC014A
:1034F000EE2EF12C670143E0D594C7944A95E1F78D
:10350000A60140525C4F6A014E2F4770F40102C081
:10351000EE0FFF1F4A95E2F7AF01F6015081452BF0
:1035200040831097A1F1A01BA7014A535C4FFA01F9
:10353000A083DC014C9141544A3180F5DC01CD017E
:1035400001964C914111C0CF7093E7036093E6035D
:1035500034C01D3409F0BBCF2032310509F0B7CF9C
:103560009093E7038093E60363E270E00E94ECEC43
:10357000009719F1DC011C9220C0A3EDA50FA23029
:1035800008F4B5CF5B3211F00C943B2EB0CFA0E025
:10359000CBCF6115710569F6BD01CBCFAD01119699
:1035A000FA01908190539A30C8F3CA014F5F5F4F80
:1035B000FC01A081A032C9F3C1CF8091EF038D340B
:1035C00009F465C3843511F40C94D92D873411F0B6
:1035D0000C941A2E8091ED039091EE038D3191059C
:1035E00009F4B7C174F48430910509F492C024F44D
:1035F0000297F8F00C94342E4C9709F4D0C00C9438
:10360000342E8A35910509F417C24CF48E31910598
:1036100009F4A3C18A9709F487C20C94342E8B3520
:10362000910509F40DC28C35910509F40EC20C9474
:10363000342E80919101882311F40C94342E6FEA7A
:10364000C62E69E0D62E7CECE72E7EE0F72EE8EE63
:10365000AE2EE3E0BE2E08EA11E0F4E09F2E900EBD
:10366000D8018D918D010E9405368823D9F00E94E2
:10367000D235F5012081211104C02091EC032223D1
:1036800031F0D7012D913D914D915C9103C020E027
:1036900030E0A9010E949EEAF60160837183828373
:1036A00093830AC0F70180819181A281B381F601E1
:1036B00080839183A283B383F4E0CF0ED11C24E0F6
:1036C000E20EF11C3FEFA31AB30A9012C9CF86E4B1
:1036D0000E9434368823C9F00E94D23520E030E0C1
:1036E000A9010E9421EC181684F40E94D23520E032
:1036F00030E040E752E40E9421EB60937301709345
:10370000740180937501909376010E940ABF0C9416
:10371000342E80E50E943436882329F00E948E35AD
:103720006B017C0103C0C12CD12C760183E50E9482
:103730003436882361F00E94D23520E030E04AE739
:1037400054E40E9489F20E949AEB6B017C010E9472
:10375000B6DA80911B01811105C060E08AED90E02E
:103760000E94C5780E944736809176049091770434
:10377000A0917804B0917904C80ED91EEA1EFB1EF0
:103780000E94643EDC01CB018C199D09AE09BF0982
:10379000B7FD02C00C94342E0E9496BCF1CF0E945B
:1037A000B6DA80E00E9466320E946C3681E0809337
:1037B0006D0488E50E940536E82E89E50E940536ED
:1037C000082F8AE50E940536F82EE11005C0011188
:1037D00005C011E0182705C0011102C010E001C0AA
:1037E000182F0E946234111104C0E11002C000239E
:1037F000C1F180E090E0A0EAB0E48093B709909333
:10380000B809A093B909B093BA099C01AD016091C0
:10381000D40E7091D50E8091D60E9091D70E0E9445
:1038200023F287FF0BC019821A821B821C82BE0101
:103830006F5F7F4F87EB99E00E94CC33111105C079
:10384000E11003C0011107C00CC080E090E00E94AD
:1038500057581123B9F381E090E00E945758111195
:1038600003C0FF2009F463C080916E04882321F017
:1038700080916F0481111EC060E084EF90E00E948F
:10388000C578E2E4FCE184918F010F5F1F4F88232C
:1038900021F00E948C36F801F6CFE3EEF0E084913F
:1038A0008F010F5F1F4F882309F441C00E948C369F
:1038B000F801F5CF0E94473580E090E0ABE1B3E43A
:1038C0008093B3099093B409A093B509B093B60956
:1038D0008091D40E9091D50EA091D60EB091D70EB6
:1038E0008093B7099093B809A093B909B093BA0926
:1038F00080E090E0A8E4B3E48093AF099093B0092E
:10390000A093B109B093B20919821A821B821C825A
:103910009E012F5F3F4F44ED5EE063EB79E08FEA5D
:1039200099E00E94E73282E090E00E9457580E949E
:10393000473580914C1780936D040E94523683E086
:10394000809377010E9444C881E00E9466320C9403
:10395000342E0E94746D0C94342EC090CC0ED090F6
:10396000CD0EE090CE0EF090CF0E88E50E9434365A
:10397000811109C020E030E044E352E4C701B60100
:103980000E949DEA02C00E94D23568A379A38AA34F
:103990009BA3C090D00ED090D10EE090D20EF090AC
:1039A000D30E89E50E943436811108C020E030E052
:1039B000A901C701B6010E949EEA02C00E94D23549
:1039C0006B017C0169837A838B839C8388A099A097
:1039D000AAA0BBA02FE632E143E85AEBC501B4012F
:1039E0000E9421EC87FF02C00C94342E21E230E8C3
:1039F00044E853E4C501B4010E9423F2181614F4FC
:103A00000C94342E2FE632E143E85AEBC701B6019D
:103A10000E9421EC87FF02C00C94342E21E230E09A
:103A20004BE953E4C701B6010E9423F2181614F4BF
:103A30000C94342E0C94452E1092EC030C94342EDE
:103A400081E08093EC030C94342E85E40E9434369C
:103A5000D82E811102C00E94B6DA48EAA42E41E0B5
:103A6000B42E5CECE52E5EE0F52E00E010E0CC24F8
:103A7000C394D5018D915D010E943436882371F085
:103A80000E94D235F7016083718382839383133060
:103A900029F0123011F4C092700401E01F5FF4E0CD
:103AA000EF0EF11C143029F7002319F00E9447355E
:103AB00037C0DD20A9F1C090D80ED090D90EE0908B
:103AC000DA0EF090DB0E20913F06309140064091D7
:103AD000410650914206C701B6010E9489F20E9438
:103AE00026EC6093760B7093770B8093780B909312
:103AF000790BC701B6010E9493EB2FB7F89460933E
:103B0000A2197093A3198093A4199093A5192FBF9C
:103B10001092660B1092670B1092680B1092690B53
:103B20000E9444C80C94342E80919101882311F492
:103B30000C94342E89E40E943436182F882321F007
:103B40000E949E35062F01C000E08AE40E943436B0
:103B5000E82E882331F00E949E35F62E111104C004
:103B60000AC0F12C1123C1F0033010F40C9452312F
:103B7000E6E1F1E005C032E0A32EAF14C8F30CC0BB
:103B800084918F010F5F1F4F882311F40C94342E02
:103B90000E948C36F801F4CF0E9462341123E9F0C0
:103BA0002091620E3091630E0203B001039F700DED
:103BB000112420915E0E30915F0E620F731F072E4D
:103BC000000C880B990B0E942AF26093AF09709346
:103BD000B0098093B1099093B209EE20F1F02091E1
:103BE000640E3091650E4F2D4203B001439F700D5E
:103BF00011248091600E9091610E680F791F072E3D
:103C0000000C880B990B0E942AF26093B309709301
:103C1000B4098093B5099093B60980E50E940536F2
:103C20008823E1F00E94C2358823C1F01123B1F04E
:103C300020E030E044E352E46091AF097091B009B4
:103C40008091B1099091B2090E949EEA6093AF09F8
:103C50007093B0098093B1099093B20986E40E94F1
:103C60003436882309F451CD0E94D2356B017C0192
:103C700020E030E0A9010E9421EC18160CF045CD9F
:103C800020E030E040E752E4C701B60134CD809136
:103C9000ED039091EE038237910509F492C60CF082
:103CA000BCC08B34910509F4F8C40CF05FC08831B6
:103CB000910509F481C2B4F58231910509F462C617
:103CC000BCF497FF02C00C94342E823091050CF4A2
:103CD0008FC1419711F00C94342E60E084E691E09E
:103CE0000E94C5785E985E9815985E980C94342E64
:103CF0008531910509F447C23CF4449711F00C94C6
:103D0000342EECE7F1E0FCC18631910509F441C2A3
:103D1000479711F00C94342E8091E6039091E703BD
:103D2000FC0141C28C31910509F49DC264F48A31D1
:103D3000910509F44EC20CF05AC21092B40B0E94C5
:103D40000F9F0C94342E8F31910509F4C0C32CF4CD
:103D50004E9709F492C20C94342E8032910509F4E6
:103D60006CC38A9709F459C40C94342E8836910593
:103D700009F49FC43CF58235910509F4FAC57CF439
:103D80008D34910509F491C40CF48BC481359105EF
:103D900011F00C94342E0E94EDC90C94342E84350D
:103DA000910509F4EFC50CF4E8C58535910509F4D2
:103DB000EDC58C35910511F00C94342E0E9403C989
:103DC0000C94342E8D36910509F484C59CF48A3602
:103DD000910509F49DC50CF471C58B36910509F464
:103DE000B6C58C36910511F00C94342E10927801E2
:103DF0000C94342E8F36910509F4ADC40CF498C49C
:103E00008037910509F44EC58137910511F00C9466
:103E1000342E0E9421CA0C94342E823E910511F456
:103E20000C9497280CF067C08B39910509F44EC5A6
:103E30001CF58737910509F49AC674F48537910506
:103E400009F455C60CF05CC68337910511F00C944B
:103E5000342EE2E6F3E0BBC58937910509F4F2C6DA
:103E60000CF4E9C68C38910509F424C58139910513
:103E700009F4EEC60C94342E8C3C910511F40C948C
:103E80001F2704F5883C910509F45BC734F48E3B89
:103E9000910509F423C50C94342E893C910511F445
:103EA0000C94E9268B3C910511F00C94342E55E5C9
:103EB000E52E57E1F52E08EA11E064E0D62ED00E8B
:103EC0000C941027833D910511F40C94F4273CF4D5
:103ED0008D3C910511F40C9489270C94342E8C3D63
:103EE000910511F40C9471288D3D910511F40C94F9
:103EF0007E280C94342E8A3951E0950709F4D6C4F3
:103F0000BCF58F32B1E09B0711F40C945D2A84F468
:103F10008D32F1E09F0711F40C946B2914F00C948E
:103F2000092A8831914011F40C94C1280C94342E44
:103F3000803941E0940711F40C94CB2C4CF4833677
:103F4000914011F00C94342EECEDF0E30C94B02D74
:103F50008139B1E09B0711F40C94CE2C8239914049
:103F600011F00C94342E80E00E94D4330C94342E43
:103F7000863FF1E09F0711F40C94692DFCF4853A1B
:103F800031E0930711F40C94D22C4CF4843A914014
:103F900011F00C94342E0E946AC70C94342E843F86
:103FA000A1E09A0711F40C94662D853F914011F021
:103FB0000C94342E0E94FA850C94342E8335E3E061
:103FC0009E0711F40C947A2D3CF4873F914011F434
:103FD0000C946C2D0C94342E803A33E0930709F442
:103FE00069C2873E934011F40C94C72D0C94342E73
:103FF000A090E603B090E70380E50E943436882362
:1040000059F00E948E356B017C0111E0672B682B03
:10401000692B31F410E004C010E0C12CD12C7601E2
:1040200083E50E9434368823F1F00E94D23520E0E7
:1040300030E04AE754E40E9489F20E949AEB6B0157
:104040007C01111112C0672B682B692B71F4A1142C
:10405000B10459F0D5018C91882339F061E0C50194
:104060000E94E47807C0112391F360E081E591E0BC
:104070000E94C57883E090E090930817809307171B
:1040800081E08093FE0A0E94B6DA0E944736C1148E
:10409000D104E104F104E9F0809176049091770471
:1040A000A0917804B0917904C80ED91EEA1EFB1EB7
:1040B0000E94643EDC01CB018C199D09AE09BF0949
:1040C000B7FF1AC08091FE0A8823B1F00E9496BC07
:1040D000EFCF8091FE0A882319F00E9496BCF9CF99
:1040E0008091B40B60E0882319F082E491E002C073
:1040F00085E391E00E94C5781092FE0A0C94342E5C
:1041000084918F010F5F1F4F882321F00E948C360E
:10411000F801F6CF1092590E1092580E40E050E080
:10412000BA0185EE9BE00E9403478BE1E5EEFBE0E0
:10413000DE01159601900D928A95E1F78091E30BCF
:104140009091E40B9C838B8388EE91E09A83898322
:1041500040E050E0BE016F5F7F4F8CE193E00E9432
:10416000BB7ECE0101960E947E59EDE6F1E084917E
:104170008F010F5F1F4F882311F40C94342E0E947F
:104180008C36F801F4CF0E94D59C0E9486590C947D
:10419000342E1092B40B1092B50B0C94342E2032A6
:1041A00009F41082319620812111F9CF40E061E0BD
:1041B0000E9487D00C94342E0E94E09E8091B50B13
:1041C000882319F081E08093B40B0E94A09E0C9488
:1041D000342E8091B50B882311F40C94342E83E592
:1041E0000E94343681110C949B2E0C94342E8091B5
:1041F000B50B882351F1EDE8F1E084918F010F5F59
:104200001F4F882321F00E948C36F801F6CF609171
:104210004F0E7091500E8091510E9091520E4AE0C7
:104220000E9471378FE20E948C3660914B0E709124
:104230004C0E80914D0E90914E0E4AE00E947137C7
:104240008AE00E948C360C94342EEFE9F1E08491E0
:104250008F010F5F1F4F882311F40C94342E0E949E
:104260008C36F801F4CF40E060E08091E603909155
:10427000E7030E9487D00C94342E8091B50B8823DD
:1042800011F40C94342E8FE79DE00E94C0468FE716
:104290009DE00E94604D1092B30B1092B20BE09023
:1042A000E603F090E7038091B50B882311F40C949A
:1042B000342E0E94A47CFE0131966F01CF010E9432
:1042C000598A81EE9BE09093010C8093000CD701FA
:1042D0008C918F3209F060C06FE270E0C7010E94DC
:1042E000ECEC8C010F5F1F4F09F45CC06FE270E0D3
:1042F000C8010E94ECEC5C01009709F454C0081757
:10430000190708F050C04C01801A910AA401B801A5
:10431000CE0180960E9415EDE0E2F0E0EC0FFD1F6B
:10432000E80DF91D10828E01005E1F4FF80181918A
:104330008F01882319F00E948C36F8CF8AE00E9402
:104340008C366091000C7091010C6115710511F0B3
:104350006C5F7F4F21E0AE01405E5F4FCE0105965E
:104360000E94694D811112C0BE01605E7F4F86EDD3
:1043700091E00E94F5DB8EE20E948C368AE00E947A
:104380008C36C6010E947E590C94342ED092010CBA
:10439000C092000C8501A6CF82E09CE09093010CB6
:1043A0008093000C87018091000C9091010C009784
:1043B00009F00496B8010E945E4E882309F1E0EBF3
:1043C000F1E084917F012FEFE21AF20A882321F0B5
:1043D0000E948C36F701F5CFD8018D918D0188238D
:1043E00019F00E948C36F8CF8AE00E948C36109229
:1043F0004F0E1092500E1092510E1092520E18C085
:10440000EEEBF1E084917F01BFEFEB1AFB0A88230A
:1044100021F00E948C36F701F5CFF80181918F01D0
:10442000882319F00E948C36F8CF8EE20E948C36D9
:10443000C6010E947E590C94342E8091B40B8111D8
:104440000E94B6DAE090E603F090E70380E50E9470
:104450000536182F882319F00E94C235182F809135
:10446000B50B882311F40C94342E412F61E0C70161
:104470000E9487D083E50E943436882381F00E9411
:104480009E35AB01BC0140934F0E5093500E60938C
:10449000510E7093520E8FE79DE00E94034780916A
:1044A000B50B882319F081E08093B40B11110C94A3
:1044B000342E8BCE8091E6039091E70321E0209388
:1044C000B30B40E060E00E9487D00C94342E0E9431
:1044D000857E2CE3C22ED12CE12CF12CA701960174
:1044E0000E947DF8762E672ECA01B901A7019601B8
:1044F0000E947DF86B017C01CA01B90128E130E01E
:1045000040E050E00E947DF84B015C01C9016DE67E
:1045100071E00E9465EA8E010F5F1F4F6115710502
:1045200099F06F927F92DF92CF929F928F929F939A
:104530008F937F936F9382E192E09F938F931F936A
:104540000F930E94BAF112C00097B1F06F927F9260
:10455000DF92CF929F928F929F938F9382E092E00F
:104560009F938F931F930F930E94BAF10FB6F89405
:10457000DEBF0FBECDBF36C081149104A104B104CB
:1045800079F06F927F92DF92CF929F928F9286EF17
:1045900091E09F938F931F930F930E94BAF1E6CF00
:1045A000C114D104E104F10469F06F927F92DF92AB
:1045B000CF928EEE91E09F938F931F930F930E9463
:1045C000BAF1D4CF6F927F928AEE91E09F938F934E
:1045D0001F930F930E94BAF10F900F900F900F90BE
:1045E0000F900F9060E0C8010E94E478E2E4FCE1E3
:1045F00084917F01BFEFEB1AFB0A882321F00E9410
:104600008C36F701F5CFB80186E292E00E94F5DB27
:104610008AE00E948C360C94342E83E50E94343656
:10462000882311F40C94342E0E94AE35E82E80E5D8
:104630000E943436882311F40C94342E0E949E3547
:10464000162FC62ED72ED7FE02C00C94342EE2E3CE
:10465000F5E088E28E0F9491191729F031968E13A8
:10466000FACF0C94AC2EECEDF0E384918F010F5F48
:104670001F4F882321F00E948C36F801F6CFE3E328
:10468000F2E084918F010F5F1F4F882311F40C9487
:10469000342E0E948C36F801F4CF0E94A09E0C9418
:1046A000342E0E940F9F0C94342E0E94AF7C0C94E9
:1046B000342E88E690E00E94D93781110C94342E74
:1046C0008091790E83FF02C00C94342E83E50E9402
:1046D0003436882349F10E94D2350E9493EB7093BF
:1046E000970E6093960E80E00E948AD60E94D23583
:1046F00020912F1130913011409131115091321190
:104700000E9421EC181684F48BE392E09F938F9320
:1047100082E492E09F938F931F920E941F9E0F90BE
:104720000F900F900F900F900E941CDC0C94342E71
:104730008EE40E943436882311F40C94342E0E94A7
:104740009E356093FB167093FC168093FD16909334
:10475000FE160C94342E83E50E940536882359F00A
:1047600083E50E943436882319F00E94AE3501C0DB
:1047700080E08093790EE2E4FCE184918F010F5F89
:104780001F4F882321F00E948C36F801F6CFECE50C
:10479000F2E084918F010F5F1F4F882321F00E9468
:1047A0008C36F801F6CF8091790E8823A1F19EE432
:1047B000C92E92E0D92EE12CF12C20E08091790EC7
:1047C00090E00E2C02C0959587950A94E2F780FF41
:1047D00017C0BB24B394B20E222319F08CE20E94BE
:1047E0008C36F60125913491F901849189010F5F8E
:1047F0001F4F882321F00E948C369801F5CF2B2D76
:10480000FFEFEF1AFF0A32E0C30ED11C45E0E416B9
:10481000F104A1F642C0E8E5F2E084918F010F5F58
:104820001F4F8823D1F10E948C36F801F6CF8AE51C
:104830000E940536882311F40C94A22D0E94D235D3
:104840006B017C0120E030E040EA51EC0E9421EC59
:1048500087FF02C00C94942D20E030E040EA51E440
:10486000C701B6010E9423F2181614F40C94942D7B
:10487000C092C80ED092C90EE092CA0EF092CB0E32
:104880000E94EEA06091C80E7091C90E8091CA0E70
:104890009091CB0E42E00E94783B8AE00E948C36D9
:1048A0000C94342E83E692E00E947D5C0E9414C832
:1048B0000C94342E0E9408CA0C94342E0E9426CCEC
:1048C00010920817109207170C9480310E94F8CBB1
:1048D0000C94342E0E944BCA0C94342E8091790E85
:1048E00083FF02C00C94342E60E08AE792E00E94BD
:1048F000C57883E50E9434368DAB81110C94C32EAC
:1049000082E50E94343681110C94C32E0C94342E0F
:1049100083E50E943436882339F00E949E358B014E
:104920006F3F710519F010F00FEF10E080E50E9465
:104930003436811106C01093990E0093980E0C9492
:10494000342E0E94AE3581110C94342EF4CF80E5C4
:104950000E943436811106C01092990E1092980E62
:104960000C94342E0E949E35672B11F00C94342E3B
:10497000F3CF1092EB030C94342E81E08093EB0381
:104980000C94342E0E94A1C90C94342E83E50E940D
:104990000536882311F40C94342E0E94D23520E081
:1049A00030E04AE754E40E9489F20E949AEB609357
:1049B00010177093111780931217909313170C947C
:1049C000342E0E94B6DA0E9444C80C94342E84918E
:1049D0008F010F5F1F4F882321F00E948C36F80152
:1049E000F6CFE4E5F3E084918F010F5F1F4F88233A
:1049F00021F00E948C36F801F6CFEDE3F3E08491CC
:104A00008F010F5F1F4F882321F00E948C36F80121
:104A1000F6CFEDE2F3E084918F010F5F1F4F882303
:104A200021F00E948C36F801F6CFECE1F3E084919E
:104A30008F010F5F1F4F882321F00E948C36F801F1
:104A4000F6CFEBE0F3E084918F010F5F1F4F8823D7
:104A500021F00E948C36F801F6CFECEFF2E0849161
:104A60008F010F5F1F4F882321F00E948C36F801C1
:104A7000F6CFE7EEF2E084918F010F5F1F4F88239E
:104A800021F00E948C36F801F6CFE1EDF2E084913E
:104A90008F010F5F1F4F882321F00E948C36F80191
:104AA000F6CFECEBF2E084918F010F5F1F4F88236C
:104AB00021F00E948C36F801F6CFEFE9F2E0849104
:104AC0008F010F5F1F4F882321F00E948C36F80161
:104AD000F6CFE7E8F2E084918F010F5F1F4F882344
:104AE00011F40C94342E0E948C36F801F4CF60E05F
:104AF0008091E6039091E7030E94E4780C94342EB1
:104B000085E40E940536882381F00E94C2358823FF
:104B100061F0E2E4FCE184918F010F5F1F4F882375
:104B200021F00E948C36F801F6CF81E40E94053610
:104B3000882381F00E94C235882361F0E0E2F4E02E
:104B400084918F010F5F1F4F882321F00E948C36C4
:104B5000F801F6CF0091E6031091E703D8018D919B
:104B60008D01882309F499CE0E948C36F7CFECE3AF
:104B7000F4E084918F010F5F1F4F882321F00E9482
:104B80008C36F801F6CFE4E3F4E084918F010F5FF7
:104B90001F4F882321F00E948C36F801F6CF3299FE
:104BA00003C008E212E002C00DE212E0F8018191B8
:104BB0008F01882319F00E948C36F8CF8AE00E947A
:104BC0008C36ECE2F4E084918F010F5F1F4F882355
:104BD00021F00E948C36F801F6CF339903C008E229
:104BE00012E002C00DE212E0D8018D918D01882300
:104BF00019F00E948C36F8CF8AE00E948C36E4E2ED
:104C0000F4E084918F010F5F1F4F882321F00E94F1
:104C10008C36F801F6CF349903C008E212E002C0E6
:104C20000DE212E0F80181918F01882309F435CE5D
:104C30000E948C36F7CF81E080936D0480934C17EF
:104C40000C94342E10926D0410924C170C94342E48
:104C500083E50E943436882319F00E949E3502C0F5
:104C600060E070E08B01112702301105D4F0ECED0B
:104C7000F0E384918F010F5F1F4F882321F00E9482
:104C80008C36F801F6CFE6E5F4E084918F010F5FF2
:104C90001F4F882311F40C94342E0E948C36F80197
:104CA000F4CF88E40E9434368823A9F00E949E3510
:104CB0006A3A71053CF06530F1E07F072CF064E062
:104CC00071E002C06AEA70E0F801EE0FFF1FE152E6
:104CD000F54F7183608386E40E9434368823A9F0FF
:104CE0000E949E35F801EE0FFF1FED51F54F7183C5
:104CF00060836F3F710519F014F06FEF70E077FF7C
:104D000002C060E070E07183608382E40E94343608
:104D1000882311F40C94342E0E949E356530710561
:104D200034F06F3671052CF06EE670E002C065E07D
:104D300070E0000F111FF801E552F54F7183608399
:104D400093C788EC90E00E94D93781118DC784E425
:104D50000E9405368823D1F10E94D23511E020E06F
:104D600030E0A9010E9423F2811101C010E01093EC
:104D70004706112359F10091E40310E00E94D23557
:104D8000000F111F000F111FF801ED5BF94F608339
:104D900071838283938320E030E0A9016091430610
:104DA0007091440680914506909146060E9423F238
:104DB00081110CC080E090E0A0EEBFE38093430639
:104DC00090934406A0934506B09346060E94D3B93B
:104DD0004BC775E6E72E77E1F72E08EA11E0E4E02D
:104DE000DE2ED00ED8018D918D010E9405368823CC
:104DF00049F00E94D2350E949AEBF70160837183DB
:104E000082839383F4E0EF0EF11CD012EBCF0E946B
:104E10004CDC2AC7F4E0EF0EF11CD01609F424C7CD
:104E2000D8018D918D010E940536882399F30E9447
:104E3000D235F7016083718382839383EBCF83E55F
:104E40000E9405368823D9F00E94D235AB01BC01FF
:104E500040937D1750937E1760937F177093801750
:104E60004093751750937617609377177093781760
:104E700082ED94E00E94BFDB8AE00E948C3680E5E0
:104E80000E940536882399F00E94D235AB01BC01FF
:104E900040937D1750937E1760937F177093801710
:104EA00085EB94E00E94BFDB8AE00E948C3682E5AD
:104EB0000E940536882399F00E94D235AB01BC01CF
:104EC0004093791750937A1760937B1770937C17F0
:104ED00086E994E00E94BFDB8AE00E948C3684E57C
:104EE0000E940536882309F4BFC60E94D235AB0163
:104EF000BC014093751750937617609377177093A2
:104F0000781788E794E00E94BFDB8AE00E948C3625
:104F1000ABC683E50E940536882351F00E94D23546
:104F200060935117709352178093531790935417AF
:104F300084E50E940536882351F00E94D2356093A3
:104F40004D1770934E1780934F179093501782E42C
:104F50000E940536882351F00E948E356093710EB1
:104F60007093720E8093730E9093740E88E50E9476
:104F70000536882351F00E94D23560932306709342
:104F80002406809325069093260689E50E9405361F
:104F9000882351F00E94D23560932706709328062B
:104FA0008093290690932A068AE50E940536882375
:104FB00051F00E94D23560932B0670932C0680939B
:104FC0002D0690932E0685E40E940536882309F469
:104FD0004BC60E94D23560932F06709330068093A3
:104FE00031069093320640C6E2E4FCE184918F01E1
:104FF0000F5F1F4F882321F00E948C36F801F6CFF7
:1050000083E50E940536882321F00E94C2358093F3
:105010007201E2E2F5E084918F010F5F1F4F882358
:1050200021F00E948C36F801F6CF80917201811137
:1050300003C0EEE1F5E002C0EAE1F5E084918F0102
:105040000F5F1F4F882321F00E948C36F801F6CFA6
:10505000E2E1F5E084918F010F5F1F4F882321F07B
:105060000E948C36F801F6CF40E050E0BA0180E1B2
:1050700095E00E94BFDB40E050E0BA018DE095E092
:105080000E94BFDB40E050E0BA018AE095E00E9458
:10509000BFDBE2E0F5E084918F010F5F1F4F8823B3
:1050A00021F00E948C36F801F6CF40E050E06BE929
:1050B00073E480E095E00E94BFDB40E050E06BE9E4
:1050C00073E48DEF94E00E94BFDB40E050E06DECB4
:1050D00073E48AEF94E00E94BFDB8AE00E948C3682
:1050E000C3C583E50E943436882309F4BDC50E94F8
:1050F0009E357093810160938001B6C58DED90E07F
:105100000E94D9378111B0C583E50E9434368823C7
:1051100009F4AAC50091E40310E00E949E35000F37
:10512000111FF801E258FE4F718360839DC580E531
:105130000E940536882309F497C50E949E35F62EF5
:10514000C62ED72E83E50E943436882321F00E9494
:105150009E358B0102C00FEF1FEFC8010196039728
:1051600008F082C5D7FC80C5E2E3F5E088E28E0F47
:105170009491F91609F478C531968E13F9CF0C94F1
:10518000593180E50E940536882309F46DC50E94D7
:105190009E356B017C018B01672B09F07EC083E596
:1051A0000E940536882339F00E949E3581EA9BE0F3
:1051B0000E948DB359C5E2E4FCE184917F012FEF99
:1051C000E21AF20A882321F00E948C36F701F5CF0B
:1051D00060E070E083E795E00E94DCDB8091A30B48
:1051E00028E532E06901C81AD10887FDD394CC0CB8
:1051F000DD1CCC0CDD1C0D2C000CEE08FF08809192
:10520000A20B28E830E04901881A910887FD9394A1
:10521000880C991C880C991C092C000CAA08BB0846
:105220008091A10B8F3FB9F090E0FC01EE0FFF1FC2
:105230008E0F9F1FFC01E458F44F0181128183E01F
:10524000000F111F8A95E1F794E0169507959A953E
:10525000E1F70E5F1F4F98012F5F3F4FC901330FDA
:10526000AA0BBB0B9C01AD01281939094A095B093E
:10527000A4EBB0E00E94BEF8A701960128193909F5
:105280004A095B090E949FF8B90180E795E00E94F6
:10529000DCDB8AE00E948C36E7C4ECEDF0E384911D
:1052A0008F010F5F1F4F882321F00E948C36F80179
:1052B000F6CFB60189E695E00E94DCDBEAE5F5E091
:1052C00084918F010F5F1F4F882309F4CDC40E9482
:1052D0008C36F801F5CF85E40E943436811110C078
:1052E00080E50E940536882391F00E94D2356093B4
:1052F000AA197093AB198093AC199093AD1907C09C
:105300000E94AE35882361F3ECEDF0E371C089E4CF
:105310000E940536882381F00E94D2352CEA35ECB4
:1053200047E25EE30E9489F26093A6197093A71981
:105330008093A8199093A91984E40E9405368823C4
:1053400081F00E94D2352CEA35EC47E25EE30E9400
:1053500021EB6093AE197093AF198093B0199093BD
:10536000B119E2E4FCE184918F010F5F1F4F8823A4
:1053700021F00E948C36F801F6CF4091AA19509185
:10538000AB196091AC197091AD1983E895E00E945A
:10539000BFDB2CEA35EC47E25EE36091A619709121
:1053A000A7198091A8199091A9190E9421EBAB012E
:1053B000BC018FE795E00E94A2DB2CEA35EC47E2C6
:1053C0005EE36091AE197091AF198091B019909120
:1053D000B1190E9489F2AB01BC018BE795E00E94F4
:1053E000A2DB8AE00E948C363FC40E948C36F80112
:1053F00084918F010F5F1F4F8111F7CF06E412E0F8
:10540000D8018D918D01882309F447CA0E948C36FA
:10541000F7CF83E50E940536182F882371F00E948C
:10542000D2350E9493EB709367016093660121E08F
:10543000672B09F020E02093700E80E50E9405366E
:10544000882359F02091660130916701232B11F0D8
:105450000E94C2358093700E07C4111105C4E2E4A6
:10546000FCE184918F010F5F1F4F882321F00E9480
:105470008C36F801F6CF8091700E811103C067E37E
:1054800072E002C06AE272E08CE995E00E94F5DB0E
:1054900060916601709167018BE895E00E94DCDB0A
:1054A000E7E8F5E084918F010F5F1F4F882309F42F
:1054B000DBC30E948C36F801F5CF85E40E943436B8
:1054C000882321F00E949E358B0102C000E010E08D
:1054D00083E40E943436882339F00E949E356A9610
:1054E0007FAF6EAF6A9706C0E5E0F0E06A96FFAF67
:1054F000EEAF6A9785E50E9405362F968FAF2F97FE
:10550000882329F00E94C2352F968FAF2F9717FD61
:1055100007C0C12CD12CB6E1EB2EB3E4FB2E06C0A4
:10552000C12CD12CACE8EA2EA2E4FA2E83E50E942D
:105530003436882321F00E94D2356B017C0101159D
:10554000110511F41092E4030E94643E4B015C01CA
:10555000012B19F407E512E00BC00AE612E0D801AE
:105560008D918D01882309F498C90E948C36F7CF5C
:10557000F80181918F01882319F00E948C36F8CFB1
:10558000C701B6010E9493EB072E000C880B990B04
:105590000E942AF26FAB7BAF8CAF9DAF8AE00E9476
:1055A0008C360E94D5D68FE78093C50981E0809321
:1055B000780164968CAE9DAEAEAEBFAE64976E962B
:1055C0008CAE9DAEAEAEBFAE6E971EAEF0E4FFAF3A
:1055D0002CE121962FAF219736E422963FAF2297F8
:1055E00023961FAE239724961FAE249725961FAEB1
:1055F000259726961FAE26972E961CAE1DAE1EAE84
:105600001FAE2E972A961CAE1DAE1EAE1FAE2A9759
:10561000C12CD12C7601FFE74F2E512C612C712C1F
:105620008FE790E0A0E0B0E089AB9AABABABBCAB4E
:1056300068961CAE1DAE1EAE1FAE689791E06096D8
:105640009FAF60971EAA1DAA212C312C00E010E00C
:1056500080917801882309F497C10E94643E6DA768
:105660007EA78FA798AB8091C309882309F4ABC0AC
:105670000E9497D720902F11309030110091311156
:10568000109132119101A80123966FAD23972496B2
:105690007FAD249725968FAD259726969FAD2697AB
:1056A0000E9423F287FF0CC023962FAE23972496E7
:1056B0003FAE249725960FAF259726961FAF2697C6
:1056C0009101A8016EAD7FAD21968FAD21972296F5
:1056D0009FAD22970E9421EC181644F42EAE3FAEE7
:1056E00021960FAF219722961FAF22976096AFADFC
:1056F00060972FA93BAD4CAD5DADB101C801AA23A8
:1057000009F447C00E9421EC18160CF05CC04DA5AE
:105710005EA56FA578A9481959096A097B09DB01BB
:10572000CA0188589341A109B109B7FD4CC089A9A4
:105730009AA9ABA9BCA984199509A609B709B59579
:10574000A795979587958093C50968964CAF5DAFEF
:105750006EAF7FAF6897BFA92396BFAF2397EBAD1E
:105760002496EFAF2497FCAD2596FFAF25972DAD7E
:1057700026962FAF26978DA59EA5AFA5B8A96496AE
:105780008CAF9DAFAEAFBFAF649760961FAE609712
:105790001AC00E9423F287FF16C08DA59EA5AFA553
:1057A000B8A964962CAD3DAD4EAD5FAD6497821B3C
:1057B000930BA40BB50BAC01BD01485853416109D3
:1057C000710977FF10C420E030E040EA51E46FA98E
:1057D0007BAD8CAD9DAD0E949EEA9B01AC01B101F9
:1057E000C8010E9421EC18166CF4E9E6F6E08491F9
:1057F0008F010F5F1F4F882309F436C20E948C3639
:10580000F801F5CF80E398EFAFEFBFEF6E962CADC8
:105810003DAD4EAD5FAD6E97821B930BA40BB50BE8
:105820002DA53EA54FA558A9820F931FA41FB51FF4
:10583000B7FD0FC00E94276B8AE00E948C368DA5B1
:105840009EA5AFA5B8A96E968CAF9DAFAEAFBFAF0A
:105850006E978DA59EA5AFA5B8A9880F991FAA1F01
:10586000BB1F64962CAD3DAD4EAD5FAD6497821B02
:10587000930BA40BB50B88199909AA09BB098138A8
:105880009F44A241B10568F0EBE4F6E084918F01FA
:105890000F5F1F4F882309F4E7C10E948C36F8017F
:1058A000F5CF4DA95EA96A968EAD9FAD6A97841714
:1058B00095070CF066C0EEEEF5E084918F010F5F66
:1058C0001F4F882321F00E948C36F801F6CFB701D4
:1058D000A60189ED95E00E94BFDB8AE00E948C362C
:1058E0002A964CAD5DAD6EAD7FAD2A9784EC95E008
:1058F0000E94BFDB8AE00E948C362E964CAD5DADD7
:105900006EAD7FAD2E978FEA95E00E94BFDB8AE0F7
:105910000E948C362F96AFAC2F97AA2009F4A4C111
:10592000C092AA19D092AB19E092AC19F092AD19BD
:105930002CEA35EC47E25EE32A966CAD7DAD8EAD88
:105940009FAD2A970E9489F26093A6197093A719B8
:105950008093A8199093A9192CEA35EC47E25EE3ED
:105960002E966CAD7DAD8EAD9FAD2E970E9421EB36
:105970006093AE197093AF198093B0199093B119D9
:1059800073C10E94F57864CE8091780181116CC159
:105990000E94D5D669C10E94B6DA66C181E00E9434
:1059A000D43362C189E40E943436882321F00E94F6
:1059B0009E35062F01C00FEF8AE40E9434368823FB
:1059C00021F00E949E35162F01C01FEF8AE50E942C
:1059D0000536F82E811105C081E50E940536D82EC6
:1059E00001C0D12C07FD02C017FF03C0ECEDF0E3AE
:1059F00005C0F1101AC0D11018C0F8CF84918F01E2
:105A00000F5F1F4F882321F00E948C36F801F6CFDC
:105A1000ECEFF6E084918F010F5F1F4F882309F4AC
:105A200023C10E948C36F801F5CF033018F0ECED5D
:105A3000F0E306C01330D8F716C00E948C36F80188
:105A400084918F010F5F1F4F8111F7CFEDEDF6E0CD
:105A500084918F010F5F1F4F882309F405C10E94B5
:105A60008C36F801F5CFE02E000FFF08012F110F43
:105A7000110B0E94D235D701AA0FBB1FDD2081F088
:105A8000FD01EE0DFF1DE00FF11FEE0FFF1FEE0FEA
:105A9000FF1FEC55F14F208131814281538103C0BA
:105AA00020E030E0A901EA0EFB1E0E0D1F1D000FC5
:105AB000111F000F111F0C55114F0E949EEAD801B3
:105AC0006D937D938D939C931397CEC00E94C68156
:105AD000CBC00E945FC6C8C083E50E9405368823FC
